:020000040800F2
:1000000000500020090700080D0600080F06000830
:10001000110600081306000815060008000000007D
:100020000000000000000000000000009126000811
:100030001706000800000000312700081906000814
:100040005107000851070008510700085107000830
:100050005107000851070008510700085107000820
:100060005107000851070008510700085107000810
:100070005107000851070008510700083106000821
:1000800051070008510700085107000851070008F0
:1000900051070008510700085107000851070008E0
:1000A00051070008510700085107000851070008D0
:1000B00051070008510700084106000851070008D1
:1000C00051070008510700085107000851070008B0
:1000D00051070008510700085107000851070008A0
:1000E00051070008510700085107000800000000F0
:1000F0000000000000000000000000000000000000
:0C01000000000000000000005FF808F1A3
:1001100010B5054C237833B9044B13B10448AFF341
:1001200000800123237010BD440400200000000063
:100130006442000808B5034B1BB103490348AFF301
:10014000008008BD00000000480400206442000850
:10015000844641EA000313F0030349D1403A23D314
:100160000B6803604B6843608B688360CB68C36037
:100170000B6903614B6943618B698361CB69C3611F
:100180000B6A03624B6A43628B6A8362CB6AC36207
:100190000B6B03634B6B43638B6B8363CB6BC363EF
:1001A00040304031403ADBD230320BD30B68036031
:1001B0004B6843608B688360CB68C360103010313C
:1001C000103AF3D20C3205D351F8043B40F8043B0B
:1001D000043AF9D2043208D0D2071CBF11F8013B0F
:1001E00000F8013B01D30B8803806046704700BFD5
:1001F000082A13D38B07B1D010F00303AED0C3F19C
:100200000403D21ADB071CBF11F8013B00F8013BC5
:10021000A4D331F8023B20F8023B9FE7043AD9D33C
:10022000013A11F8013B00F8013BF9D20B78037059
:100230004B7843708B7883706046704700B583B00D
:100240000A4B5A6942F001025A615B6903F00103EB
:100250000193019B002205210F2000F0EBFA0F20F3
:1002600000F020FB03B05DF804FB00BF001002406B
:1002700008B503F09EFE3220044B1860142103F0F1
:10028000BEFE012002F040F9FBE700BF7004002031
:1002900008B510E003F0ADFE094B1868023818608D
:1002A000142103F0ACFE074A137883F001031370A6
:1002B000012002F029F901F069FD0028EAD0F7E7F2
:1002C000700400206004002008B5002003F036FF11
:1002D00001F00EFD01F066FE0D4803686FF00102AB
:1002E0001A6101F0F7FA4FF4FA7000F07DFA01F0AC
:1002F00041FE084A0021084802F090F8074B1860B8
:10030000074A0021074802F089F8074B186008BD2A
:1003100010050020944200087102000868040020C3
:10032000B8420008910200086C04002038B5044669
:10033000194A1368013313601E2B04D02368174A2F
:10034000934223D038BD134600221A60144B1B7809
:10035000002BF3D003F0FAFE124B83FB0023C517EA
:10036000C5EB2315322303FB150503F0EFFE0E4BFF
:1003700083FB00231918C317C3EBA113C3EB0313AB
:10038000A0EBC301284603F04FFED7E76FF0010250
:100390001A6101F0CBFDD5E764040020000800409D
:1003A000600400201F85EB518988888830B589B0AA
:1003B00000240494059406940794214B9A6942F012
:1003C00010029A619A6902F010020092009A9A69EA
:1003D00042F020029A619A6902F020020192019A89
:1003E0009A6942F004029A619A6902F00402029248
:1003F000029A9A6942F008029A619B6903F0080325
:100400000393039B0F4D22464FF4C041284600F052
:10041000ACFC4FF4C04304930123059306940323DB
:10042000079304A9284600F087FB782304930594DA
:10043000069404A9044800F07FFB09B030BD00BF5A
:1004400000100240001001400008014072B6FEE7B3
:1004500000B591B02822002106A803F01DFE00235C
:1004600001930293039304930593012206924FF4A0
:10047000803307930A9202220D920E934FF4E013F9
:100480000F9306A800F08EFC80B90F230193022180
:100490000291002303934FF480620492059301A814
:1004A00000F0C0FE20B911B05DF804FBFFF7CEFFED
:1004B000FFF7CCFF08B500F073F9FFF7C9FFFFF7AE
:1004C00075FFFFF7BBFE00F009F800F0C3F801F07C
:1004D0005DFFFFF7F9FE01F07BFFFEE708B50D4871
:1004E0000D4B03604FF48273436000238360C3604D
:1004F000036143614FF400728261C361036243622E
:1005000083620A23C36200F0BFFF00B908BDFFF792
:100510009DFFFBE7B80400200038004010B586B00E
:100520000023029303930493059302681E4B9A429F
:1005300001D006B010BD044603F5EC33DA6942F48D
:100540008042DA61DA6902F480420092009A9A6984
:1005500042F008029A619B6903F008030193019B32
:100560004FF420430293022303930323059302A92C
:100570000E4800F0E1FA0E480E4B03601023436072
:10058000002383608022C2600361436183614FF472
:100590008053C36100F0BEF918B9054BA3645C62D7
:1005A000C7E7FFF753FFF8E700380040000C0140B1
:1005B000740400205800024000B583B0114B9A69C2
:1005C00042F001029A619A6902F001020092009AD7
:1005D000DA6942F08052DA61DB6903F080530193FB
:1005E000019B00220F216FF0010000F023F9064A61
:1005F000536823F0E06343F00073536003B05DF889
:1006000004FB00BF0010024000000140FEE7FEE7CF
:10061000FEE7FEE7FEE7704708B500F0D3F803F009
:1006200059FA012800D108BD02F0A4F8FBE7000048
:1006300008B5024800F0DEF908BD00BF74040020D0
:1006400008B5024801F07EF908BD00BF1005002082
:100650007047000000B587B0002302930393049312
:100660000593009301931648164A026041F61F4213
:10067000426083604FF4A572C2600361802383618E
:1006800001F058FA90B94FF48053029302A90C4834
:1006900001F088FA68B9002300930193694608487D
:1006A00001F0EEFA40B907B05DF804FBFFF7CEFEAB
:1006B000E9E7FFF7CBFEEEE7FFF7C8FEF3E700BF81
:1006C000100500200008004002680E4B9A4200D03E
:1006D000704700B583B003F50233DA6942F00402D3
:1006E000DA61DB6903F004030193019B0022052119
:1006F0001E2000F09FF81E2000F0D4F803B05DF833
:1007000004FB00BF000800400C480D490D4A0023BF
:1007100002E0D458C4500433C4188C42F9D30A4AB6
:100720000A4C002301E013600432A242FBD3FFF71E
:100730008FFF03F08DFCFFF7BDFE70470000002027
:10074000440400202843000844040020A82200207C
:10075000FEE7000010B504460E4B18784FF47A738C
:10076000B3FBF0F30C4A1068B0FBF3F000F0A8F80C
:1007700068B90F2C01D901200AE0002221464FF070
:10078000FF3000F057F8054B1C60002000E001200E
:1007900010BD00BF04000020000000200800002061
:1007A00008B5074A136843F010031360032000F0F4
:1007B0002FF80F20FFF7CEFFFFF7FEFE002008BD49
:1007C00000200240034A1168034B1B780B4413605E
:1007D000704700BF5805002004000020014B186836
:1007E000704700BF5805002038B50446FFF7F6FFF4
:1007F0000546B4F1FF3F02D0044B1B781C44FFF7C1
:10080000EDFF401BA042FAD338BD00BF040000201A
:10081000074AD36823F4E0631B041B0C000200F4B6
:10082000E060034343F0BF6343F40033D360704799
:1008300000ED00E000B5194BDB68C3F30223C3F100
:10084000070CBCF1040F28BF4FF0040C03F1040E99
:10085000BEF1060F18D9033B4FF0FF3E0EFA0CFC19
:1008600021EA0C0199400EFA03F322EA030319432B
:1008700000280BDB0901C9B200F1604000F56140BE
:1008800080F800135DF804FB0023E5E700F00F009B
:100890000901C9B2024B1954F4E700BF00ED00E0B2
:1008A00014ED00E0002807DB00F01F0240090123DF
:1008B0009340024A42F82030704700BF00E100E058
:1008C0000138B0F1807F0BD24FF0E0235861054A28
:1008D000F02182F823100020986107221A617047E6
:1008E0000120704700ED00E030B40124056CAC40FD
:1008F000C56B6C60046863604368102B05D00368A7
:1009000099600368DA6030BC704703689A600368D6
:10091000D960F8E760B310B402460168154B0B4488
:100920001548A0FB03031B099B001364134BD363FF
:10093000022382F82130086820F47F5020F0300034
:10094000536894682343D468234314692343546948
:10095000234394692343D469234303430B6000205A
:100960009063012382F8213082F8200010BC704788
:1009700001207047F8FFFDBFCDCCCCCC0000024079
:1009800038B5044690F82000012831D0012084F8C1
:10099000200094F82100012804D0002384F820309E
:1009A000022038BD022084F821000020A0632568C1
:1009B000286820F0010028602046FFF795FFE36AD1
:1009C0005BB12268136843F00E031360226813685A
:1009D00043F0010313600020E3E72268136823F06B
:1009E000040313602268136843F00A031360EDE701
:1009F0000220D6E738B5C36B1A6804682568016C15
:100A000004238B40134235D015F0040F32D02368F5
:100A100013F0200F03D1236823F00403236003683D
:100A2000434A934214D01432934218D01432934262
:100A300017D01432934217D01432934217D0143285
:100A4000934202D04FF0806203E04FF4800200E056
:100A50000422384B5A60C36A03B1984738BD40221C
:100A6000F7E74FF48062F4E74FF48042F1E74FF488
:100A70008022EEE702238B4013423CD015F0020F98
:100A800039D0236813F0200F06D1236823F00A031E
:100A90002360012380F821300368254A934214D053
:100AA000143293421CD0143293421BD0143293421E
:100AB0001BD0143293421BD01432934202D04FF019
:100AC000007203E04FF4001200E00222194B5A605A
:100AD000002380F82030836A002BBFD09847BDE701
:100AE0002022F3E74FF40072F0E74FF40052EDE7F5
:100AF0004FF40032EAE7082303FA01F11142ADD0C6
:100B000015F0080FAAD0236823F00E032360026CAF
:100B1000C16B012303FA02F24A60836380F821303B
:100B2000002380F82030036B002B97D0984795E77F
:100B3000080002400000024070B582B00024A446C4
:100B4000A6E0804DAA4210D007D97F4DAA420CD012
:100B500005F58035AA4208D013E0A5F58015AA4214
:100B600003D005F57025AA4207D18A68002A58D01B
:100B7000012A51D04361082403E0A5F58015AA425B
:100B8000F3D0BEF1FF0F4ED80646BEF1FF0F4CD892
:100B90004FEA8C0233680F25954023EA050304FAD7
:100BA00002F2134333604B6813F0805F6ED0674BE3
:100BB0009A6942F001029A619B6903F00103019373
:100BC000019B4FEA9C02951C614B53F825600CF089
:100BD00003039D000F23AB4026EA03065D4B9842BA
:100BE00029D003F58063984200F08E8003F580637E
:100BF000984200F08B8003F58063984219D004235B
:100C00001AE0CC68BDE7CC680434BAE7CC68083495
:100C1000B7E7CC680C34B4E703610824B1E70024DB
:100C2000AFE70424ADE7061DAFE7ACF10802920080
:100C3000B0E7032300E00023AB4033430232444DCE
:100C400045F822304B6813F4803F61D0424A136864
:100C500043EA0E0313604B6813F4003F5ED03E4A34
:100C6000536843EA0E0353604B6813F4801F5BD054
:100C7000394A936843EA0E0393604B6813F4001FEC
:100C800058D0354AD36843EA0E03D3600CF1010C07
:100C90000A6832FA0CF353D0012303FA0CF302EA88
:100CA000030E33EA0202F1D14A68122A3FF649AF35
:100CB000122A3FF666AF01A555F822F06B0B00082B
:100CC000030C00080D0C00081F0C0008830B000823
:100CD000830B0008830B0008830B0008830B0008BC
:100CE000830B0008830B0008830B0008830B0008AC
:100CF000830B0008830B0008830B0008830B00089C
:100D0000070C0008130C0008012395E7022393E762
:100D1000114A136823EA0E0313609CE70E4A5368D6
:100D200023EA0E0353609FE70B4A936823EA0E03FE
:100D30009360A2E7084AD36823EA0E03D360A5E7CD
:100D400002B070BD000022100000311000100240FF
:100D5000000001400008014000040140836819427E
:100D600001D001207047002070470AB1016170472F
:100D7000090401617047000082B0084B1B68084AF3
:100D8000A2FB03235B0A00FB03F3019300BF019B5B
:100D90005A1E0192002BF9D102B0704700000020CA
:100DA000D34D6210002800F0F18170B582B0044686
:100DB000036813F0010F2CD0994B5B6803F00C0310
:100DC000042B1DD0964B5B6803F00C03082B12D04C
:100DD0006368B3F5803F41D0002B55D103F18043C8
:100DE00003F504331A6822F480321A601A6822F478
:100DF00080221A6037E08A4B5B6813F4803FE7D0AB
:100E0000874B1B6813F4003F03D06368002B00F08E
:100E1000BF81236813F0020F75D0814B5B6813F01C
:100E20000C0F5FD07E4B5B6803F00C03082B54D093
:100E30002369002B00F08A807A4B01221A60FFF7A9
:100E4000CDFC0546764B1B6813F0020F75D1FFF7FA
:100E5000C5FC401B0228F5D903209EE1704A1368A7
:100E600043F480331360636843B3FFF7B7FC054670
:100E70006B4B1B6813F4003FCBD1FFF7AFFC401B5B
:100E80006428F5D9032088E1B3F5A02F09D0644B7D
:100E90001A6822F480321A601A6822F480221A60DA
:100EA000E1E703F18043A3F53C331A6842F4802262
:100EB0001A601A6842F480321A60D4E7FFF78EFC99
:100EC0000546574B1B6813F4003FA2D0FFF786FC82
:100ED000401B6428F5D903205FE1514B5B6813F494
:100EE000803FA5D14E4B1B6813F0020F03D023693E
:100EF000012B40F04F814A4A136823F0F8036169DF
:100F000043EAC1031360236813F0080F33D0A369C9
:100F1000002B5CD0434B0122C3F88024FFF75EFC1A
:100F200005463F4B5B6A13F0020F21D1FFF756FCD9
:100F3000401B0228F5D903202FE1394A136823F01A
:100F4000F803616943EAC1031360DCE7354B002213
:100F50001A60FFF743FC0546314B1B6813F0020F84
:100F6000D1D0FFF73BFC401B0228F5D9032014E148
:100F70000120FFF701FF236813F0040F00F09680B3
:100F8000274BDB6913F0805F34D1254BDA6942F0DF
:100F90008052DA61DB6903F080530193019B0125E4
:100FA000214B1B6813F4807F26D0E368012B3DD0D2
:100FB000002B53D103F1804303F504331A6A22F066
:100FC00001021A621A6A22F004021A6233E0154B17
:100FD0000022C3F88024FFF701FC0546104B5B6A32
:100FE00013F0020FC7D0FFF7F9FB401B0228F5D919
:100FF0000320D2E00025D3E70B4A136843F4807343
:101000001360FFF7EBFB0646074B1B6813F4807F6A
:10101000CBD1FFF7E3FB801B6428F5D90320BCE0AC
:101020000010024000004242007000405F4A136A14
:1010300043F001031362E36833B3FFF7CFFB0646C7
:101040005A4B1B6A13F0020F2FD1FFF7C7FB801B0F
:1010500041F288339842F3D903209EE0052B09D052
:10106000524B1A6A22F001021A621A6A22F0040232
:101070001A62E0E74D4B1A6A42F004021A621A6AD9
:1010800042F001021A62D6E7FFF7A8FB0646474B7B
:101090001B6A13F0020F08D0FFF7A0FB801B41F280
:1010A00088339842F3D9032077E0E5B9E369002B50
:1010B00072D03E4A526802F00C02082A56D0022B27
:1010C00017D03B4B00221A66FFF788FB0446374BCC
:1010D0001B6813F0007F47D0FFF780FB001B02283E
:1010E000F5D9032059E0314AD36923F08053D36105
:1010F000DCE72F4B00221A66FFF770FB05462B4BEF
:101100001B6813F0007F06D0FFF768FB401B022826
:10111000F5D9032041E0236AB3F5803F1AD0234973
:101120004B6823F47413226A606A024313434B60D2
:101130001F4B01221A66FFF751FB04461B4B1B682D
:1011400013F0007F0ED1FFF749FB001B0228F5D9F1
:10115000032022E0154A536823F40033A1680B43AF
:101160005360DCE7002018E0002016E0012B16D0C9
:101170000E4B5B6803F48031226A914211D103F473
:101180007013626A93420ED1002006E0012070477E
:10119000012002E0012000E0002002B070BD01202B
:1011A000FBE70120F9E70120F7E700BF001002404C
:1011B0000000424286B0174B0FCB0DF1180C0CE922
:1011C0000F0040F20123ADF80430134B5B6803F0CD
:1011D0000C02082A02D0114806B07047C3F38342BC
:1011E00018326A4412F8100C13F4803F0DD00A4BE9
:1011F0005B68C3F3404318336B4413F8143C074A4D
:1012000002FB00F0B0FBF3F0E6E7054B03FB00F058
:10121000E2E700BFEC4200080010024000127A0032
:1012200000093D00002800F0A08070B50D4604467E
:10123000524B1B6803F007038B420BD24F4A1368D3
:1012400023F007030B431360136803F007038B427B
:1012500040F08D80236813F0020F17D013F0040FB5
:1012600004D0474A536843F4E0635360236813F0A3
:10127000080F04D0424A536843F460535360404A15
:10128000536823F0F003A1680B435360236813F005
:10129000010F31D06368012B20D0022B25D0384AB2
:1012A000126812F0020F64D035494A6822F0030236
:1012B00013434B60FFF792FA0646314B5B6803F02D
:1012C0000C036268B3EB820F16D0FFF787FA801B1E
:1012D00041F288339842F0D9032045E0284A126849
:1012E00012F4003FE0D101203EE0254A126812F0DE
:1012F000007FD9D1012037E0204B1B6803F00703A2
:10130000AB420AD91D4A136823F007032B4313602D
:10131000136803F00703AB422DD1236813F0040FC9
:1013200006D0174A536823F4E063E1680B43536027
:10133000236813F0080F07D0114A536823F4605351
:10134000216943EAC1035360FFF734FF0C4B5B682C
:10135000C3F303130B4AD35CD8400B4B18600B4B01
:101360001868FFF7F7F9002070BD012070470120D1
:10137000FAE70120F8E70120F6E700BF002002406D
:1013800000100240DC42000800000020080000209D
:101390002DE9F04782B00546884617461E46FFF7FE
:1013A0001DFA0A9B1B1A03EB0609FFF717FA824680
:1013B0002B4B1B68C3F3CB3309FB03F301932B685F
:1013C0009C6838EA04030CBF4FF0010C4FF0000C8E
:1013D000BC4540D0B6F1FF3FF1D0FFF7FFF9A0EBDD
:1013E0000A0048450AD2B9F1000F07D0019A02B1AC
:1013F0004A46019B013B01939146E0E72A68536806
:1014000023F0E00353606B68B3F5827F0BD0AB6AC7
:10141000B3F5005F14D0012385F85130002385F81F
:101420005030032018E0AB68B3F5004F02D0B3F59D
:10143000806FECD12A68136823F040031360E6E75D
:101440002A68136823F4005313602A68136843F46E
:1014500000531360DFE7002002B0BDE8F08700BF53
:101460000000002010B582B004460B460092002216
:101470008021FFF78DFF08B902B010BD636D43F006
:10148000200363650320F7E7002856D010B5044613
:10149000436A33B94368B3F5827F05D00023C36143
:1014A00002E00023036143610023A36294F85130FA
:1014B000002B3CD0022384F851302268136823F0BB
:1014C00040031360636803F48273A26802F4044269
:1014D0001343E26802F400621343226902F002023D
:1014E0001343626902F001021343A26902F400721D
:1014F0001343E26902F038021343226A02F08002C9
:101500001343A26A02F40052216813430B60638BF9
:10151000226803F0040353602268D36923F4006354
:10152000D36100206065012384F8513010BD84F838
:1015300050302046FEF7F2FFBCE7012070472DE94E
:10154000F04383B01D4690F85030012B00F0D1805D
:10155000044688469146012380F85030FFF73EF953
:10156000074694F85160F6B2012E40F0AF80B8F112
:10157000000F00F0AC80B9F1000F00F0A880032349
:1015800084F8513000236365C4F83080A4F83490A7
:10159000A4F83690A363A387E38763642364A368F6
:1015A000B3F5004F1ED023681A6812F0400F03D124
:1015B0001A6842F040021A60E368B3F5006F1CD06D
:1015C000636813B1B9F1010F52D1226B236812780D
:1015D0001A73236B01332363E38E9BB2013B9BB2EF
:1015E000E38645E02268136823F040031360226815
:1015F000136843F480431360D5E7636813B1B9F10E
:10160000010F16D1226B23681288DA60236B023334
:101610002363E38E9BB2013B9BB2E38609E0FFF7B5
:10162000DDF8C01BA84202D3B5F1FF3F59D1002D10
:1016300059D0E38E9BB2002B33D023689A6812F006
:10164000020FECD0226B1288DA60236B0233236323
:10165000E38E9BB2013B9BB2E386EAE7FFF7BEF85D
:10166000C01BA84202D3B5F1FF3F3ED1002D3ED0B2
:10167000E38E9BB2ABB123689A6812F0020FEDD0F3
:10168000226B12781A73236B01332363B4F836C0CC
:101690001FFA8CFC0CF1FF3C1FFA8CFCA4F836C03E
:1016A000E6E73A4629462046FFF7DCFE08B120234C
:1016B0006365A36833B901932368DA6801929B6874
:1016C0000193019B636D13B9002600E002260123FC
:1016D00084F85130002384F85030304603B0BDE820
:1016E000F0830326F3E70326F1E70326EFE703265B
:1016F000EDE70226F1E7000038B590F85030012BF5
:1017000061D00446012380F8503090F85150EDB27A
:101710009D4252D1002951D0002A4FD0032380F896
:1017200051300023436501638286C286836343642C
:1017300003648387C3878368B3F5004F2AD0A36C03
:10174000224ADA62A36C224A9A62A36C214A1A6383
:10175000A36C00225A632268E38E9BB20C32216B89
:10176000A06CFFF70DF90146F8B923681A6812F06A
:10177000400F03D11A6842F040021A602268536891
:1017800043F0200353602268536843F00203536020
:101790000D4613E00268136823F0400313600268EB
:1017A000136843F480431360C9E7636D43F010038B
:1017B0006365012384F8513000E00225002384F89A
:1017C0005030284638BD0225FBE700BFDD17000872
:1017D0000B180008E91700087047704708B5406A01
:1017E000FFF7FBFF08BD704708B5406A0268536801
:1017F00023F003035360436D43F01003436501235B
:1018000080F85130FFF7EFFF08BD30B583B00546D3
:10181000446AFEF7E3FF2B681B6813F0200F23D107
:10182000024621684B6823F020034B6021684B6817
:1018300023F002034B6064212046FFF713FE18B12A
:10184000636D43F020036365A36833B90193236894
:10185000DA6801929B680193019B0023E3860123D0
:1018600084F85130636D23B92046FFF7B5FF03B00C
:1018700030BD2046FFF7B7FFF9E710B4036A046AEA
:1018800024F001040462846924F0F00C4CEA021292
:1018900023F00A030B438261036210BC704710B44B
:1018A000046A24F0100404628469036A24F4704C0E
:1018B0004CEA023223F0A00343EA0113826103627F
:1018C00010BC7047836823F070030B4343F0070399
:1018D0008360704790F83D30DBB2012B27D10223A3
:1018E00080F83D300268D36843F00103D360036899
:1018F000114A934210D0B3F1804F0DD0A2F594322B
:10190000934209D002F58062934205D01A6842F0F2
:1019100001021A60002070479A6802F00702062A46
:1019200007D01A6842F001021A60002070470120B7
:1019300070470020704700BF002C0140704770477F
:101940007047704710B5044603681A6912F0020F19
:1019500011D0DA6812F0020F0DD06FF002021A6196
:101960000123037703689B6913F0030F70D0FFF71F
:10197000E6FF0023237723681A6912F0040F12D0C0
:10198000DA6812F0040F0ED06FF004021A6102231D
:10199000237723689B6913F4407F5FD02046FFF7CD
:1019A000CEFF0023237723681A6912F0080F12D0A4
:1019B000DA6812F0080F0ED06FF008021A610423E3
:1019C00023772368DB6913F0030F4ED02046FFF71F
:1019D000B6FF0023237723681A6912F0100F12D084
:1019E000DA6812F0100F0ED06FF010021A6108239F
:1019F00023772368DB6913F4407F3DD02046FFF74F
:101A00009EFF0023237723681A6912F0010F03D089
:101A1000DA6812F0010F36D123681A6912F0800FCC
:101A200003D0DA6812F0800F34D123681A6912F0FB
:101A3000400F03D0DA6812F0400F32D123681A69E0
:101A400012F0200F03D0DA6812F0200F30D110BD51
:101A5000FFF774FF2046FFF773FF8AE72046FFF782
:101A60006DFF2046FFF76CFF9BE72046FFF766FF00
:101A70002046FFF765FFACE72046FFF75FFF2046F3
:101A8000FFF75EFFBDE76FF001021A612046FEF727
:101A90004DFCC1E76FF080021A61204600F027F983
:101AA000C3E76FF040021A612046FFF74AFFC5E71F
:101AB0006FF020021A61204600F018F9C7E7000015
:101AC00003681B4A90420AD0B0F1804F07D0A2F5BC
:101AD0009432904203D002F58062904203D123F009
:101AE00070034A681343124A90420AD0B0F1804F03
:101AF00007D0A2F59432904203D002F58062904262
:101B000003D123F44073CA68134323F080034A6966
:101B1000134303608B68C3620B688362044B984273
:101B200002D00123436170470B690363F9E700BFEB
:101B3000002C014040B310B5044690F83D30F3B19D
:101B4000022384F83D30214651F8040BFFF7B8FF1B
:101B5000012384F8463084F83E3084F83F3084F81E
:101B6000403084F8413084F8423084F8433084F8BF
:101B7000443084F8453084F83D30002010BD80F8B2
:101B80003C30FEF7A1FDDBE70120704710B484680C
:101B900024F47F4C42EA03220A4342EA0C028260A8
:101BA00010BC704790F83C30012B66D010B504464D
:101BB000012380F83C30022380F83D3002689368AE
:101BC00023F47F4323F0770393600B68602B40D0AE
:101BD00022D8402B47D00BD9502B0ED1CA68496868
:101BE0000068FFF74AFE50212068FFF76BFE04E013
:101BF000202B0CD008D9302B09D0012384F83D309C
:101C0000002084F83C0010BD0BB1102BF5D1194613
:101C10002068FFF757FEF0E7702B0ED0B3F5005F9A
:101C2000EBD1CB684A6889680068FFF7AFFF22688C
:101C3000936843F480439360DFE7CB684A68896820
:101C40000068FFF7A3FF2268936843F0770393606F
:101C5000D3E7CA6849680068FFF721FE6021206861
:101C6000FFF730FEC9E7CA6849680068FFF705FE5C
:101C700040212068FFF726FEBFE7022070470000E2
:101C800090F83C30012B2CD010B4012380F83C306C
:101C9000022380F83D3003685A689C6822F0700C7B
:101CA0000A6842EA0C025A6003680F4A93420AD05B
:101CB000B3F1804F07D0A2F59432934203D002F5DE
:101CC0008062934204D124F080044A6814439C60EB
:101CD000012380F83D30002380F83C30184610BCCA
:101CE00070470220704700BF002C014070477047CA
:101CF00010B588B00023049305930693079303F16E
:101D0000804303F504339A6942F004029A619A69A8
:101D100002F004020092009A9A6942F004029A6169
:101D20009A6902F004020192019A9A6942F004024F
:101D30009A619A6902F004020292029A9A6942F048
:101D400004029A619B6903F004030393039B082335
:101D500004930D4C04A92046FEF7EEFE10230493D5
:101D60000DEB03012046FEF7E7FE2023049304A9B0
:101D70002046FEF7E1FE4023049304A92046FEF727
:101D8000DBFE08B010BD00BF0008014008B5082107
:101D90002648FEF7E3FF68B90A20FEF725FD082173
:101DA0002248FEF7DBFF0028F9D00A20FEF71CFDD1
:101DB000012008BD10211D48FEF7D0FFB8B1202139
:101DC0001A48FEF7CBFF00B340211848FEF7C6FFC4
:101DD00048BB0A20FEF708FD40211448FEF7BEFF6D
:101DE0000028F9D00A20FEF7FFFC0420E1E70A20D2
:101DF000FEF7FAFC10210D48FEF7B0FF0028F9D0DD
:101E00000A20FEF7F1FC0220D3E70A20FEF7ECFCE3
:101E100020210648FEF7A2FF0028F9D00A20FEF78D
:101E2000E3FC0320C5E74FF0FF30C2E700080140A4
:101E300030B589B00023049305930693079303F10B
:101E4000804303F504339A6942F008029A619A6963
:101E500002F008020192019A9A6942F008029A611E
:101E60009A6902F008020292029A9A6942F0080204
:101E70009A619B6903F008030393039B4FF4C043EB
:101E800004930125059503230793064C04A92046D6
:101E9000FEF752FE2A464FF400512046FEF765FF3A
:101EA00009B030BD00100140F0B583B00C4660F0C1
:101EB0004F00C5B21B4E00224FF480413046FEF762
:101EC00054FF8DF80750184D0A2301220DF1070128
:101ED0002846FFF734FBC4F3031747F0100700222E
:101EE0004FF480413046FEF740FF8DF807700A231B
:101EF00001220DF107012846FFF721FB04F00F0432
:101F000000224FF480413046FEF72FFF8DF8074046
:101F10000A2301220DF107012846FFF710FB03B049
:101F2000F0BD00BF00100140B804002008B500213A
:101F30000846FFF7B9FF01224FF480410948FEF738
:101F400014FF4FF4806208490848FFF7D5FB084B9F
:101F50001B6813F4003FFAD0054B4FF400325A606F
:101F600008BD00BF001001405C050020B80400203F
:101F70000000024038B5094C4FF480652A46002124
:101F8000204602F089F800210846FFF78DFF2A4617
:101F900021460348FFF7B0FB38BD00BF5C050020B9
:101FA000B804002070B582B0FFF742FF4FF4FA701A
:101FB000FEF71AFCCA4D00224FF480412846FEF776
:101FC000D4FEAE238DF80730C64C0A2301220DF152
:101FD00007012046FFF7B3FA00224FF4804128465C
:101FE000FEF7C3FED5238DF807300A2301220DF139
:101FF00007012046FFF7A3FA00224FF4804128464C
:10200000FEF7B3FE80238DF807300A2301220DF17D
:1020100007012046FFF793FA00224FF4804128463B
:10202000FEF7A3FEA8238DF807300A2301220DF145
:1020300007012046FFF783FA00224FF4804128462B
:10204000FEF793FE3F238DF807300A2301220DF19E
:1020500007012046FFF773FA00224FF4804128461B
:10206000FEF783FED3238DF807300A2301220DF1FA
:1020700007012046FFF763FA00224FF4804128460B
:10208000FEF773FE00268DF807600A2301220DF18A
:1020900007012046FFF753FA32464FF480412846A5
:1020A000FEF763FE40238DF807300A2301220DF16D
:1020B00007012046FFF743FA32464FF48041284695
:1020C000FEF753FEA1238DF807300A2301220DF1FC
:1020D00007012046FFF733FA32464FF48041284685
:1020E000FEF743FEC8238DF807300A2301220DF1C5
:1020F00007012046FFF723FA32464FF48041284675
:10210000FEF733FEDA238DF807300A2301220DF1A2
:1021100007012046FFF713FA32464FF48041284664
:10212000FEF723FE12238DF807300A2301220DF15A
:1021300007012046FFF703FA32464FF48041284654
:10214000FEF713FE20238DF807300A2301220DF13C
:1021500007012046FFF7F3F932464FF48041284645
:10216000FEF703FE8DF807600A2301220DF1070137
:102170002046FFF7E4F932464FF480412846FEF747
:10218000F4FD81238DF807300A2301220DF10701A8
:102190002046FFF7D4F932464FF480412846FEF737
:1021A000E4FDCF238DF807300A2301220DF107014A
:1021B0002046FFF7C4F932464FF480412846FEF727
:1021C000D4FDD9238DF807300A2301220DF1070130
:1021D0002046FFF7B4F932464FF480412846FEF717
:1021E000C4FDF1238DF807300A2301220DF1070108
:1021F0002046FFF7A4F932464FF480412846FEF707
:10220000B4FDDB238DF807300A2301220DF107010D
:102210002046FFF794F932464FF480412846FEF7F6
:10222000A4FD30238DF807300A2301220DF10701A8
:102230002046FFF784F932464FF480412846FEF7E6
:1022400094FDA4238DF807300A2301220DF1070124
:102250002046FFF774F932464FF480412846FEF7D6
:1022600084FDA6238DF807300A2301220DF1070112
:102270002046FFF764F932464FF480412846FEF7C6
:1022800074FD8D238DF807300A2301220DF107011B
:102290002046FFF754F932464FF480412846FEF7B6
:1022A00064FD14238DF807300A2301220DF1070184
:1022B0002046FFF744F932464FF480412846FEF7A6
:1022C00054FDAF238DF807300A2301220DF10701D9
:1022D0002046FFF734F9FFF74DFE02B070BD00BF96
:1022E00000100140B8040020C0F3C20300F0070052
:1022F00001EBC311044A12F801C0012303FA00F0F4
:1023000040EA0C00505470475C0500202DE9F04174
:1023100004460D4616461F4682420BD0BD4213D0DE
:10232000BDE8F08105F10108012229462046FFF7AA
:10233000DBFF4546BD42F5D9F0E7671C012229467F
:102340002046FFF7D1FF3C46B442F6D9E8E7F8B59E
:1023500006460F461C460A44551E2B460246FFF70A
:10236000D5FF3444013C2B46224639462046FFF730
:10237000CDFF3B46224639463046FFF7C7FF2B4686
:10238000224629463046FFF7C1FFF8BDEFF305832B
:1023900093B9EFF3108393B90C4B1868022804D05B
:1023A00080B90A4B01221A607047EFF31183002BAA
:1023B000F6D06FF0050070476FF0050070476FF0C2
:1023C000050070474FF0FF30704700BFB80B00208A
:1023D00008B5EFF30583B3B9EFF31083B3B90E4B30
:1023E0001B68022B08D0012B13D10B4B02221A6061
:1023F00001F0CEF8002008BDEFF31182002AF2D0E0
:102400006FF00500F7E76FF00500F4E76FF00500E7
:10241000F1E74FF0FF30EEE7B80B0020F0B587B0E2
:1024200000240494EFF30584002C43D1EFF31083D0
:10243000002B3FD1334B1B68022B16D0002839D01C
:1024400000238DF8173062B3156895B1936903B90D
:1024500018235C1E372C51D8546814F0010F4FD14B
:1024600056694EB14FEA960C08E0EFF311830BBBAF
:10247000E4E70DF11705E9E74FF0800C94682CB103
:10248000D7685B2F02D9176907B1B6B914B14FF0FD
:10249000FF340CE0D46894B914699CB14FF0FF3458
:1024A00005E0002418234FF0800C0DF11705012CD6
:1024B0000AD0ACB1049807B0F0BD0124F7E74FF0A3
:1024C000FF34F4E70024F2E7146992680292019461
:1024D00000930B466246294600F0ECFF0490E9E7C2
:1024E00004AA019200930B461FFA8CF2294601F0D0
:1024F0001BF80128DED000230493DBE70020DAE795
:102500000020D8E7B80B002008B5EFF30583A3B986
:10251000EFF31083A3B90C4B1B68022B02D040B918
:10252000002008BDEFF31183002BF8D06FF00500F9
:10253000F7E701F091F90020F3E76FF00500F0E70D
:102540006FF00500EDE700BFB80B0020034B036000
:10255000034B0B6080231360704700BF5C0B0020AF
:102560005C090020034B0360034B0B604FF4807346
:1025700013607047BC0F0020BC0B002000F1080363
:1025800043604FF0FF328260C36003610023036049
:10259000704700230361704743684B609A688A6004
:1025A000516099600861036801330360704730B47B
:1025B0000D68B5F1FF3F11D000F108031C465B68C0
:1025C0001A68AA42FAD963684B6099608C606160AE
:1025D000086103680133036030BC70470469F2E7A7
:1025E0000369416882688A60416851605A68824222
:1025F00006D0002202611A68013A1A601868704712
:1026000082685A60F5E7000082B0002301930D4B09
:102610001B68B3F1FF3F08D04FF0500383F31188DC
:10262000BFF36F8FBFF34F8FFEE74FF0500383F37D
:102630001188BFF36F8FBFF34F8F019B002BFCD02E
:1026400002B070470C00002006480068006880F364
:10265000088862B661B6BFF34F8FBFF36F8F00DF9C
:1026600000BF000008ED00E04FF0807340F8043C2C
:1026700021F0010140F8081C034B40F80C3C40F8E5
:10268000202C4038704700BF0926000800000000D9
:10269000074B19680868B0E8F00F80F30988BFF3AA
:1026A0006F8F4FF0000080F311884EF00D0E7047D1
:1026B000781C00204FF0500383F31188BFF36F8F15
:1026C000BFF34F8F0B4A136801331360012B00D007
:1026D00070474FF0E023D3F8043D13F0FF0FF7D01D
:1026E0004FF0500383F31188BFF36F8FBFF34F8F09
:1026F000FEE700BF0C000020094B1B6843B94FF0F8
:10270000500383F31188BFF36F8FBFF34F8FFEE742
:10271000013B034A13600BB983F31188704700BF74
:102720000C0000200000000000000000000000007D
:10273000EFF30980BFF36F8F0D4B1A6820E9F00F9C
:1027400010602DE908404FF0500080F3118801F02F
:10275000A9F84FF0000080F31188BDE8084019681F
:102760000868B0E8F00F80F30988BFF36F8F7047F7
:10277000781C002008B54FF0500383F31188BFF395
:102780006F8FBFF34F8F00F05FFF28B14FF0E02352
:102790004FF08052C3F8042D002383F3118808BD45
:1027A0004FF0E022002313619361054B1B6805493C
:1027B000A1FB03139B09013B53610723136170477E
:1027C00000000020D34D621010B582B02A4B1A7859
:1027D000D2B20192FF221A701B78DBB28DF803305F
:1027E0009DF8033003F05003244A1370244B072252
:1027F0001A6009E0224A1368013B13609DF8033018
:102800005B00DBB28DF803309DF8033013F0800FCE
:10281000F0D11B4B1B68032B08D04FF0500383F300
:102820001188BFF36F8FBFF34F8FFEE71B02144A6F
:10283000136003F4E0631360019BDBB20E4A137074
:102840004FF0E023D3F8202D42F47002C3F8202D7E
:10285000D3F8202D42F07042C3F8202DFFF7A0FFDF
:102860000024084B1C60FFF7EFFE01F01BF8FFF798
:10287000CBFE204602B010BD00E400E0181000209E
:102880001C1000200C000020EFF305830F2B0FD944
:10289000114A9B5CDBB2114A12789A4208D94FF078
:1028A000500383F31188BFF36F8FBFF34F8FFEE7A1
:1028B0004FF0E023D3F80C3D03F4E063084A1268BC
:1028C000934208D94FF0500383F31188BFF36F8F01
:1028D000BFF34F8FFEE77047F0E300E018100020D1
:1028E0001C100020124A12F0070F1ED0D11D21F03B
:1028F0000701C1F5406313440A460E4802600021F7
:1029000041601344083B23F007030B480360596000
:102910001960991A51601360084B1960084B1960CF
:10292000084B4FF000421A6070474FF44063E4E7F1
:1029300024100020301C0020201000202C1C00201F
:10294000281C0020241C0020154B1A461B688342BB
:10295000FBD3516802EB010C844509D0416800EBC0
:10296000010C634509D00360904218D01060704795
:102970004068014451601046F0E710B4094C2468E7
:10298000A3420AD05B681944416013681B68036066
:10299000904200D0106010BC70470460F8E77047A8
:1029A000301C00202010002070B5054600F03EFECF
:1029B000344B1B68A3B1344B1B681D424AD135B15F
:1029C000083515F0070F02D025F007050835002D52
:1029D00042D02E4B1B68AB424DD32D4A146804E005
:1029E000FFF780FFE7E722461C466368AB4202D24E
:1029F0002368002BF7D1234B1B68A3423DD01668F8
:102A000008362368136063685B1B102B10D96019AC
:102A100010F0070F08D04FF0500383F31188BFF375
:102A20006F8FBFF34F8FFEE743606560FFF78CFF4A
:102A3000626816490B689B1A0B60164909688B423D
:102A400001D214490B60104B1B68134363600023D1
:102A5000236002E0002600E0002600F081FE16F070
:102A6000070F0CD04FF0500383F31188BFF36F8F23
:102A7000BFF34F8FFEE70026EFE70026EDE7304675
:102A800070BD00BF20100020241C0020281C002046
:102A9000301C00202C1C002080B338B50446A0F167
:102AA000080550F8043C164A1268134208D14FF04A
:102AB000500383F31188BFF36F8FBFF34F8FFEE78F
:102AC00050F8081C41B14FF0500383F31188BFF355
:102AD0006F8FBFF34F8FFEE723EA020340F8043CF9
:102AE00000F0A4FD54F8041C064A13680B4413605C
:102AF0002846FFF729FF00F033FE38BD704700BFBE
:102B0000241C0020281C002010B50446FFF7D2FD2D
:102B1000A26BE36B9A4204D00024FFF7EDFD204640
:102B200010BD0124F9E710B50446FFF7C3FDA36B00
:102B300023B90124FFF7E0FD204610BD0024F9E78A
:102B400070B504461546866B026C5AB903681BB112
:102B500000200136A66370BD406800F0CBFF002363
:102B60006360F6E76DB98068FDF7F2FA226CA3683E
:102B70001344A3606268934219D32368A360284674
:102B8000E7E7C068FDF7E4FA226C5142E3689B1A5C
:102B9000E3602268934202D263680B44E360022D33
:102BA00001D00020D5E726B1013E0020D1E728461C
:102BB000CFE70020CDE708B50346026C62B10846B6
:102BC000D9681144D960D3F804C0614501D31968AC
:102BD000D960D968FDF7BCFA08BD38B50546FFF7DE
:102BE00069FD95F8454064B201E0013C64B2002CF7
:102BF0000ADD6B6A43B105F1240000F0D1FE002824
:102C0000F3D000F061FFF0E7FF2385F84530FFF7D0
:102C100073FDFFF74FFD95F8444064B201E0013CBD
:102C200064B2002C0ADD2B6943B105F1100000F0FD
:102C3000B7FE0028F3D000F047FFF0E7FF2385F848
:102C40004430FFF759FD38BD38B5E0B10D460446B4
:102C5000FFF730FD2368E26B216C01FB02306060FE
:102C60000020A063A360013A02FB0133E360FF236D
:102C700084F8443084F84530FDB9236963B9FFF71F
:102C80003BFD012038BD4FF0500383F31188BFF3A3
:102C90006F8FBFF34F8FFEE704F1100000F080FE4E
:102CA0000028ECD04FF0E0234FF08052C3F8042D01
:102CB000BFF34F8FBFF36F8FE1E704F11000FFF711
:102CC0005DFC04F12400FFF759FCD8E738B51D4638
:102CD000049C0B4649B92460E0632364012120462B
:102CE000FFF7B2FF84F84C5038BD2260F4E740B9DA
:102CF0004FF0500383F31188BFF36F8FBFF34F8FF3
:102D0000FEE710B584B01C46844653B192B189B930
:102D10004FF0500383F31188BFF36F8FBFF34F8FD2
:102D2000FEE74FF0500383F31188BFF36F8FBFF3BB
:102D30004F8FFEE76AB150230393039B502B13D0B0
:102D40004FF0500383F31188BFF36F8FBFF34F8FA2
:102D5000FEE70029EFD04FF0500383F31188BFF353
:102D60006F8FBFF34F8FFEE7012384F84630009446
:102D70009DF818306046FFF7A9FF204604B010BD4B
:102D8000F0B585B0019288B10F461D460446B1B139
:102D9000022D20D1E36B012B1DD04FF0500383F3A4
:102DA0001188BFF36F8FBFF34F8FFEE74FF05003D3
:102DB00083F31188BFF36F8FBFF34F8FFEE7036C70
:102DC000002BE5D04FF0500383F31188BFF36F8FD2
:102DD000BFF34F8FFEE700F07DFE064658B9019B1A
:102DE000002B48D04FF0500383F31188BFF36F8F4F
:102DF000BFF34F8FFEE700263DE02A4639462046C6
:102E0000FFF79EFE636A7BB948B14FF0E0234FF0B5
:102E10008052C3F8042DBFF34F8FBFF36F8FFFF7BE
:102E20006BFC012005B0F0BD04F1240000F0B8FDFA
:102E30000028F4D04FF0E0234FF08052C3F8042D67
:102E4000BFF34F8FBFF36F8FE9E7FFF755FC00200B
:102E5000E8E702A800F0EAFD012619E0002384F863
:102E6000443021E0002384F8453023E02046FFF77A
:102E7000B4FE00F075FCFFF71DFCA26BE36B9A42F9
:102E8000BBD3022DB9D0019B002BDED0002EE0D0A9
:102E9000FFF732FC00F0CAFBFFF70CFC94F844206B
:102EA00052B2B2F1FF3FD9D094F8452052B2B2F1FC
:102EB000FF3FD7D0FFF720FC01A902A800F0C2FD18
:102EC000D8B92046FFF720FE0028CFD0019904F1A1
:102ED000100000F031FD2046FFF77FFE00F040FCBF
:102EE0000028C8D14FF0E0234FF08052C3F8042DE2
:102EF000BFF34F8FBFF36F8FBDE72046FFF76DFE27
:102F000000F02EFC00208DE72DE9F84390B10F462C
:102F100016461C460546B1B1022C20D1EB6B012BA5
:102F20001DD04FF0500383F31188BFF36F8FBFF3B1
:102F30004F8FFEE74FF0500383F31188BFF36F8F7D
:102F4000BFF34F8FFEE7036C002BE5D04FF050032B
:102F500083F31188BFF36F8FBFF34F8FFEE7FFF747
:102F600093FCEFF311894FF0500383F31188BFF303
:102F70006F8FBFF34F8FAA6BEB6B9A4206D3022C75
:102F800004D0002089F31188BDE8F88395F84580C6
:102F90004FFA88F8224639462846FFF7D1FDB8F1A6
:102FA000FF3F06D008F101035BB285F845300120F0
:102FB000E8E76B6A0BB90120E4E705F1240000F0B3
:102FC000EFFC18B126B101203060DBE70120D9E722
:102FD0000120D7E7F0B585B0019290B10F460446C5
:102FE000C1B100F077FD064600BB019B002B5ED00F
:102FF0004FF0500383F31188BFF36F8FBFF34F8FF0
:10300000FEE74FF0500383F31188BFF36F8FBFF3D8
:103010004F8FFEE7036C002BE3D04FF0500383F398
:103020001188BFF36F8FBFF34F8FFEE700263EE09E
:1030300039462046FFF7BFFD013DA563236923B94B
:10304000FFF75AFB012005B0F0BD04F1100000F0BD
:10305000A7FC0028F4D04FF0E0234FF08052C3F8D3
:10306000042DBFF34F8FBFF36F8FE9E7FFF744FBEA
:103070000020E8E702A800F0D9FC012621E00023A7
:1030800084F8443029E0002384F845302BE02046C2
:10309000FFF7A3FD00F064FB09E02046FFF79DFD6C
:1030A00000F05EFB2046FFF73EFD00283FD1FFF712
:1030B00001FBA56B002DBBD1019B002BD6D0002EB0
:1030C000D8D0FFF719FB00F0B1FAFFF7F3FA94F844
:1030D00044305BB2B3F1FF3FD1D094F845305BB2DE
:1030E000B3F1FF3FCFD0FFF707FB01A902A800F023
:1030F000A9FC0028D1D12046FFF715FD0028C6D035
:10310000019904F1240000F017FC2046FFF765FD4B
:1031100000F026FB0028CAD14FF0E0234FF0805288
:10312000C3F8042DBFF34F8FBFF36F8FBFE70020AD
:1031300089E700000023072B0CD8074A52F83320F8
:103140000AB10133F7E7044A42F8331002EBC30334
:1031500058607047704700BF381C002070B50446A7
:103160000D461646FFF7A6FA94F844305BB2B3F169
:10317000FF3F0DD094F845305BB2B3F1FF3F0BD069
:10318000FFF7BAFAA36B5BB12046FFF726FD70BDCF
:10319000002384F84430EDE7002384F84530EFE75E
:1031A0003246294604F1240000F0DEFBECE7000083
:1031B000084B1B681B6823B9074B4FF0FF321A609E
:1031C0007047044B1B68DB68DB685A68024B1A6067
:1031D000704700BF7C1C0020282100202DE9F0470B
:1031E00080460D4617469946089EDDF824A00A9CA5
:1031F0009200A521206B00F04FFF236B07F1804266
:10320000013A03EB820727F007074FF0000CBCF1EF
:103210000F0F0BD815F80C2004EB0C0383F83420A7
:1032200015F80C3013B10CF1010CF0E7002384F811
:103230004330372E00D93726E662E664002525653F
:10324000201DFFF7A6F904F11800FFF7A2F9246189
:10325000C6F13806A6616462656584F858504A462E
:1032600041463846FFF700FA2060BAF1000F01D05E
:10327000CAF80040BDE8F08738B5002407E004EB49
:10328000840293000E481844FFF778F90134372C74
:10329000F5D90C4D2846FFF771F90B4C2046FFF786
:1032A0006DF90A48FFF76AF90948FFF767F9094815
:1032B000FFF764F9084B1D60084B1C6038BD00BF68
:1032C000841C0020FC200020102100203021002040
:1032D0005C210020482100207C1C0020801C002054
:1032E00010B50446FFF7E6F9224A1368013313606C
:1032F000214B1B685BB1214B1B686BB91E4B1B68D4
:10330000DA6AE36A9A4207D81B4B1C6004E01A4B46
:103310001C601368012B29D0194A1368013313600C
:103320006364E06A174B1B68984201D9154B18601B
:1033300000EB8000211D144B03EB8000FFF72CF9FC
:10334000FFF7DAF90D4B1B687BB10B4B1B68DA6A90
:10335000E36A9A4209D24FF0E0234FF08052C3F85B
:10336000042DBFF34F8FBFF36F8F10BDFFF784FFA6
:10337000D2E700BFE4200020781C00204421002078
:10338000F4200020F8200020841C002010B5044602
:1033900090F8593063B1012B11D0022B0ED04FF0B1
:1033A000500383F31188BFF36F8FBFF34F8FFEE796
:1033B000006BFFF771FB2046FFF76EFB10BDFFF7B8
:1033C0006BFBFBE70F4B1B68D3B110B5FFF772F92E
:1033D0000D4BDB68DC68201DFFF702F90B4A136810
:1033E000013B1360074A1368013B1360FFF784F940
:1033F0002046FFF7CBFF034B1B68002BE6D110BD27
:10340000704700BFE82000205C210020E42000205D
:1034100008B5FFF7D7FF074B1B68012BF9D94FF011
:10342000E0234FF08052C3F8042DBFF34F8FBFF35A
:103430006F8FEEE7841C002070B504460D46174BD5
:103440001E68174B18680430FFF7CAF8B4F1FF3F45
:103450000DD03444124B1B685C60A64210D9114B4E
:1034600018680F4B19680431FFF7A1F870BD002DE3
:10347000EFD00B4B196804310B48FFF78DF8F5E7D7
:103480000A4B1868064B19680431FFF790F8084B8F
:103490001B68A342EAD9064B1C60E7E770210020B5
:1034A000781C0020801C0020482100207C1C00206B
:1034B0002821002030B587B00B9C7CB10C9DB5B1A4
:1034C0005C250495049D5C2D1AD04FF0500383F3C6
:1034D0001188BFF36F8FBFF34F8FFEE74FF050039C
:1034E00083F31188BFF36F8FBFF34F8FFEE74FF069
:1034F000500383F31188BFF36F8FBFF34F8FFEE745
:103500000C9D2C63022485F85940002403940295F5
:1035100005AC01940A9C0094FFF760FE0C98FFF73D
:10352000DFFE059807B030BD2DE9F04385B00746B2
:10353000884614461E469000FFF736FA00B38146CF
:103540005C20FFF731FA0546B0B1C0F83090E5B124
:10355000002385F85930039302950D9B01930C9B32
:1035600000933346224641463846FFF737FE284649
:10357000FFF7B6FE012005E04846FFF78DFAE6E7C3
:103580004FF0FF3005B0BDE8F0834FF0FF30F9E7B2
:1035900010B588B000240594069407AA06A905A8CA
:1035A000FEF7D4FF059B0293069B019300942346EC
:1035B000079A18491848FFF77DFF184B186040B16B
:1035C00000F04CFB012806D0B0F1FF3F18D008B046
:1035D00010BD0020F6E74FF0500383F31188BFF3CE
:1035E0006F8FBFF34F8F0E4B4FF0FF321A600D4BB2
:1035F00001221A600C4B00221A60FFF7E5F8E6E79B
:103600004FF0500383F31188BFF36F8FBFF34F8FD9
:10361000FEE700BF00430008113400082421002009
:10362000282100204421002070210020024A136834
:1036300001331360704700BFF0200020014B186871
:10364000704700BF70210020F8B53A4B1B68002B73
:1036500064D1394B1D6801351D60C5B9374B1B68F6
:103660001B6843B14FF0500383F31188BFF36F8F92
:10367000BFF34F8FFEE7314A1168314B1868106075
:103680001960304A136801331360FFF791FD2E4B28
:103690001B68AB4238D900272C4B1B68DB6A03EB55
:1036A00083039A002A4B9B58012B3CD901273AE00F
:1036B0000127224B1B681B6843B3204B1B68DB6848
:1036C000DC6863689D4226D3261D3046FEF788FFDE
:1036D000A36A1BB104F11800FEF782FFE36A1D4ADA
:1036E0001268934201D91B4A136003EB83039A00CB
:1036F000314617481044FEF74FFFE26A134B1B6830
:10370000DB6A9A42D4D2D4E70027D2E70E4B4FF0BF
:10371000FF321A60C0E70C4A1360BDE70E4A136817
:103720000133136000270D4B1B6803B10127384696
:10373000F8BD00BFF0200020702100207C1C00207C
:10374000801C00202C21002028210020781C002033
:10375000841C0020F8200020EC2000207421002090
:1037600038B5354B1B6843B94FF0500383F31188CC
:10377000BFF36F8FBFF34F8FFEE7FEF79BFF2E4B1C
:103780001A68013A1A601B68002B4FD12B4B1B683B
:103790000BB900244BE00024294B1B681BB3284BBA
:1037A000DB68DC6804F11800FEF71AFF251D2846C7
:1037B000FEF716FFE06A234B1B68984201D9214BA4
:1037C000186000EB800029461F4B03EB8000FEF7DA
:1037D000E3FEE26A1D4B1B68DB6A9A42DCD31C4B9A
:1037E00001221A60D8E70CB1FFF7E2FC194B1C6804
:1037F00084B9174B1C68D4B14FF0E0234FF08052CE
:10380000C3F8042DBFF34F8FBFF36F8F01240EE079
:10381000013C07D0FFF718FF0028F9D00C4B01221C
:103820001A60F5E70B4B00221A60E2E70024FEF76E
:1038300063FF204638BD00BFF0200020E4200020B8
:1038400030210020F8200020841C0020781C00205B
:1038500074210020EC20002010B5A8B10446104BC4
:103860001B6843B14FF0500383F31188BFF36F8F90
:10387000BFF34F8FFEE7FFF7D9FE00212046FFF789
:10388000DBFDFFF76DFF48B94FF0E0234FF08052AA
:10389000C3F8042DBFF34F8FBFF36F8F10BD00BF70
:1038A000F02000201F4B1B681BB11F4B01221A6028
:1038B00070471D4B00221A601C4B1B6803EB8301F1
:1038C0008A001B498A585AB90BB1013BF6E74FF001
:1038D000500383F31188BFF36F8FBFF34F8FFEE761
:1038E00003EB830082000A4450684068506003EB99
:1038F000830C4FEA8C020832114488420BD003EB50
:10390000830291000A4A0A445268D168094A116048
:10391000064A13607047406862469100044A0A44B0
:103920005060ECE7F020002074210020F8200020F7
:10393000841C0020781C002058B110B50C46094AA0
:1039400011681831FEF733FE01212046FFF774FDA0
:1039500010BD4FF0500383F31188BFF36F8FBFF397
:103960004F8FFEE7781C002038B570B10D46144625
:103970000A4A11681831FEF70FFE0CB14FF0FF35FF
:1039800021462846FFF758FD38BD4FF0500383F31A
:103990001188BFF36F8FBFF34F8FFEE7781C0020B5
:1039A00038B5C368DC6824B304F118052846FEF76F
:1039B00017FE184B1B682BBB251D2846FEF710FE73
:1039C000E06A154B1B68984201D9134B186000EB55
:1039D00080002946114B03EB8000FEF7DDFDE26A13
:1039E0000F4B1B68DB6A9A4211D901200D4B1860FE
:1039F00038BD4FF0500383F31188BFF36F8FBFF3CF
:103A00004F8FFEE729460848FEF7C6FDE7E700208E
:103A1000EEE700BFF0200020F8200020841C0020EA
:103A2000781C00207421002030210020034B1B68EB
:103A30000360034B1B684360704700BF2C210020CC
:103A400070210020D8B170B50C46054601B3FEF7D1
:103A500031FE1B4B19686B68C81A2268B2F1FF3F30
:103A600027D0184E3668D5F800C0B44501D08B4237
:103A700024D9824215D80023236001241AE04FF094
:103A8000500383F31188BFF36F8FBFF34F8FFEE7AF
:103A90004FF0500383F31188BFF36F8FBFF34F8F45
:103AA000FEE75B1A134423602846FFF7BFFF00249C
:103AB00000E00024FEF720FE204670BD0124F9E757
:103AC000702100202C210020014B01221A60704738
:103AD00074210020054B1B6833B1054B1B680BB1EB
:103AE00000207047022070470120704744210020C9
:103AF000F020002000283BD038B504461E4B1B6840
:103B0000834208D04FF0500383F31188BFF36F8FC7
:103B1000BFF34F8FFEE7036D43B94FF0500383F3BC
:103B20001188BFF36F8FBFF34F8FFEE7013B036533
:103B3000C16AC26C91421DD00BB1002038BD051D79
:103B40002846FEF74DFDE06CE062C0F13803A3614A
:103B50000A4B1B68984201D9084B186000EB8000A3
:103B60002946074B03EB8000FEF716FD0120E5E731
:103B7000002070470020E1E7781C0020F82000209A
:103B8000841C0020064B1A681368B3FA83F35B09A0
:103B9000036013B9D368186870470020704700BFEE
:103BA0007821002008B54160006191420CD8D21AFA
:103BB00083699A4201D3012008BD011D094B186891
:103BC000FEF7F5FC0020F7E79A4201D2994206D2AF
:103BD000011D054B1868FEF7EAFC0020ECE7012008
:103BE000EAE700BF7C2100207821002030B583B0B7
:103BF000FEF760FD114B1B681BB1FEF77DFD03B0A6
:103C000030BD0F4D2846FEF7B9FC0E4C2046FEF79E
:103C1000B5FC0D4B1D600D4B1C60002300930C4B3D
:103C20000C4A10210A20FFF762F8044B18600028A4
:103C3000E3D00949FFF77EFADFE700BF9C220020AE
:103C40002022002034220020782100207C21002026
:103C50004C220020802100200843000810B588B0C5
:103C6000FFF7C4FF124B1B68CBB1002405940694E8
:103C700007AA06A905A8FEF775FC059B0293069BFB
:103C80000193022300932346079A0A490A48FFF743
:103C900011FC0A4B186010B1012008B010BD4FF0A4
:103CA000500383F31188BFF36F8FBFF34F8FFEE78D
:103CB0009C220020104300089D3F0008A022002005
:103CC000B8B19C4603461848006858B300B585B0A3
:103CD00000910192029305291CDCFFF7FBFE0228EC
:103CE00010D000231A4669460F480068FFF748F8CD
:103CF00015E04FF0500383F31188BFF36F8FBFF3CC
:103D00004F8FFEE70023069A694607480068FFF7D1
:103D100037F804E0002362466946FFF7F5F805B07E
:103D20005DF804FB002070479C22002070B582B033
:103D30001A4B1B681A6852B3DB681E68DC68251DC5
:103D40002846FEF74DFC636A20469847E369012B3D
:103D5000EED1A36933449E4207D2636024612946B1
:103D60000E4B1868FEF723FCE2E7002100910B469A
:103D700032462046FFF7A4FF0028D9D14FF0500368
:103D800083F31188BFF36F8FBFF34F8FFEE7044AB1
:103D9000106802490860136002B070BD78210020ED
:103DA0007C21002038B50546FFF748FC0446074B48
:103DB0001B68834205D800232B60044B1C602046FF
:103DC00038BDFFF7B3FF01232B60F6E74822002040
:103DD00070B582B006460D4614490968C968CC68BA
:103DE000201DFEF7FDFBE169012904D0636A20462E
:103DF000984702B070BDA16933462A463144204637
:103E0000FFF7D0FE0028F1D0002100910B4632468A
:103E10002046FFF755FF0028E8D14FF0500383F309
:103E20001188BFF36F8FBFF34F8FFEE7782100201B
:103E300070B582B006460C46FFF7F8FB01A8FFF705
:103E4000B1FF019B2BBB05460CB9B0421AD22CB175
:103E5000124B1B681C68B4FA84F464092246711B77
:103E60000F4B1868FFF77AF9FFF77AFC98B94FF013
:103E7000E0234FF08052C3F8042DBFF34F8FBFF300
:103E80006F8F08E0FFF76CFC29463046FFF7A0FF74
:103E900001E0FFF765FC02B070BD00BF7C2100208F
:103EA0009C22002010B588B002E0049B002B0FDAA2
:103EB000002204A9384B1868FFF78CF8002869D055
:103EC000049B002BF1DA07990698059B9847ECE7CD
:103ED000069C636913B1201DFEF782FB03A8FFF760
:103EE00061FF049B092BE3D801A252F823F000BF25
:103EF000193F0008193F0008193F0008B13E0008AB
:103F00005F3F0008853F0008193F0008193F00087F
:103F1000B13E00085F3F0008059BA16902461944B5
:103F20002046FFF73FFE0028C2D0636A204698472C
:103F3000E369012BBCD1A269002100910B460598D1
:103F400002442046FFF7BCFE0028B1D14FF05003D9
:103F500083F31188BFF36F8FBFF34F8FFEE705998F
:103F6000A16131B10346024601442046FFF71AFE23
:103F70009EE74FF0500383F31188BFF36F8FBFF3B9
:103F80004F8FFEE794F82C30002B91D12046FEF79E
:103F900083FD8DE708B010BD9C22002000B583B0E2
:103FA00001A8FFF7EFFD0199FFF742FFFFF77AFF46
:103FB000F6E708B54023802200210846FEF7C7F93E
:103FC0003E237E2201210846FEF7C1F93C237C22D4
:103FD00002210846FEF7BBF93A237A22032108465C
:103FE000FEF7B5F93823782204210846FEF7AFF929
:103FF00008BD08B5FDF7BEFFFFF7DBFF08BDF8B54C
:1040000007460E464FF0FF3508E00122A119E819D6
:10401000FEF76AF90134012CF7DD0135012D02DCD0
:104020004FF0FF34F7E7F8BDF8B507460E46002518
:1040300008E00122A119E819FEF756F90134012C14
:10404000F7DD0135012D01DC0024F8E7F8BD0000A3
:1040500070B50D4E0D4D761BB61006D0002455F8E8
:10406000043B01349847A642F9D1094E094D00F0AE
:10407000F9F8761BB61006D0002455F8043B01343D
:104080009847A642F9D170BD1C4300081C430008A4
:10409000244300081C430008830730B548D0541E51
:1040A000002A3FD00346CAB201E0013C3AD303F8EC
:1040B000012B9D07F9D1032C2DD9CDB245EA052559
:1040C0000F2C45EA054536D9A4F1100222F00F0C59
:1040D00003F1200EE6444FEA121C03F1100242E9FC
:1040E000045542E9025510327245F8D10CF1010233
:1040F00014F00C0F03EB021204F00F0C13D0ACF110
:10410000040323F003030433134442F8045B934293
:10411000FBD10CF003042CB1CAB21C4403F8012BF0
:104120009C42FBD130BD64461346002CF4D1F9E724
:1041300003461446BFE71A46A446E0E70022024BB6
:104140001B68C3E92A027047100000200A4B10B414
:104150000A4A1C680A49D4E92A0300FB02F201FB5F
:104160000322A0FB0101431C42EB0100C4E92A30F9
:1041700020F0004010BC7047100000202DF4515872
:104180002D7F954C024B13B1024800F005B87047E3
:1041900000000000A5410008002301461A46184609
:1041A00000F01AB838B5084B084D5B1B9C1007D0BF
:1041B000043B1D44013C55F804399847002CF9D1C3
:1041C000BDE8384000F054B82843000824430008F4
:1041D000704700BF704700BF2DE9F047DFF87CA0B3
:1041E0000646DAF8000098460F469146FFF7F0FFC2
:1041F0001B4B1B68D3F8484124B365681F2D26DC90
:104200005EB96B1C0235DAF80000636044F8257073
:10421000FFF7E0FF0020BDE8F087012304EB8501F4
:10422000C1F88890D4F88821AB401A43022EC4F814
:104230008821C1F80881E4D1D4F88C211343C4F853
:104240008C31DEE703F5A674C3F84841D5E7DAF808
:104250000000FFF7BFFF4FF0FF30DCE74004002015
:1042600018430008F8B500BFF8BC08BC9E4670476C
:0C427000F8B500BFF8BC08BC9E467047C3
:10427C006B65795363616E5461736B006465666141
:10428C00756C745461736B00884200080000000068
:10429C000000000000000000000000000002000010
:1042AC001800000000000000000000007C42000824
:1042BC0000000000000000000000000000000000F2
:1042CC0000020000180000000000000000000000C8
:1042DC0000000000000000000102030406070809AA
:1042EC0002030405060708090A0B0C0D0E0F10102B
:1042FC000000000049444C4500000000546D725110
:10430C0000000000546D72205376630018000020EA
:08431C0085410008350100088D
:04432400110100087B
:104328000024F4000100000010000000AAAAAAAAB4
:104338001800002000000000000000000403002016
:104348006C030020D40300200000000000000000DF
:104358000000000000000000000000000000000055
:104368000000000000000000000000000000000045
:104378000000000000000000000000000000000035
:104388000000000000000000000000000000000025
:104398000000000000000000000000000000000015
:1043A8000000000000000000000000000000000005
:1043B80000000000000000000000000000000000F5
:1043C80000000000000000000000000000000000E5
:1043D80000000000000000000000000000000000D5
:1043E80001000000000000000E33CDAB34126DE672
:1043F800ECDE05000B0000000000000000000000DB
:1044080000000000000000000000000000000000A4
:104418000000000000000000000000000000000094
:104428000000000000000000000000000000000084
:104438000000000000000000000000000000000074
:04476800A422002067
:0400000508000709DF
:00000001FF
